{
  "_format": "hh-sol-artifact-1",
  "contractName": "LabBooking",
  "sourceName": "contracts/LabBooking.sol",
  "abi": [
    {
      "inputs": [
        {
          "internalType": "address",
          "name": "_token",
          "type": "address"
        },
        {
          "internalType": "address",
          "name": "_departmentWallet",
          "type": "address"
        }
      ],
      "stateMutability": "nonpayable",
      "type": "constructor"
    },
    {
      "inputs": [
        {
          "internalType": "string",
          "name": "_equipmentId",
          "type": "string"
        },
        {
          "internalType": "uint256",
          "name": "_durationHours",
          "type": "uint256"
        },
        {
          "internalType": "uint256",
          "name": "_depositAmount",
          "type": "uint256"
        }
      ],
      "name": "bookEquipment",
      "outputs": [],
      "stateMutability": "nonpayable",
      "type": "function"
    },
    {
      "inputs": [],
      "name": "bookingCount",
      "outputs": [
        {
          "internalType": "uint256",
          "name": "",
          "type": "uint256"
        }
      ],
      "stateMutability": "view",
      "type": "function"
    },
    {
      "inputs": [
        {
          "internalType": "uint256",
          "name": "",
          "type": "uint256"
        }
      ],
      "name": "bookings",
      "outputs": [
        {
          "internalType": "address",
          "name": "student",
          "type": "address"
        },
        {
          "internalType": "string",
          "name": "equipmentId",
          "type": "string"
        },
        {
          "internalType": "uint256",
          "name": "startTime",
          "type": "uint256"
        },
        {
          "internalType": "uint256",
          "name": "endTime",
          "type": "uint256"
        },
        {
          "internalType": "uint256",
          "name": "depositAmount",
          "type": "uint256"
        },
        {
          "internalType": "bool",
          "name": "returnedEquipment",
          "type": "bool"
        }
      ],
      "stateMutability": "view",
      "type": "function"
    },
    {
      "inputs": [],
      "name": "departmentWallet",
      "outputs": [
        {
          "internalType": "address",
          "name": "",
          "type": "address"
        }
      ],
      "stateMutability": "view",
      "type": "function"
    },
    {
      "inputs": [
        {
          "internalType": "uint256",
          "name": "_bookingId",
          "type": "uint256"
        }
      ],
      "name": "forfeit",
      "outputs": [],
      "stateMutability": "nonpayable",
      "type": "function"
    },
    {
      "inputs": [
        {
          "internalType": "uint256",
          "name": "_bookingId",
          "type": "uint256"
        }
      ],
      "name": "returnEquipment",
      "outputs": [],
      "stateMutability": "nonpayable",
      "type": "function"
    },
    {
      "inputs": [],
      "name": "token",
      "outputs": [
        {
          "internalType": "contract IERC20",
          "name": "",
          "type": "address"
        }
      ],
      "stateMutability": "view",
      "type": "function"
    }
  ],
  "bytecode": "0x60806040523480156200001157600080fd5b50604051620014433803806200144383398181016040528101906200003791906200012a565b816000806101000a81548173ffffffffffffffffffffffffffffffffffffffff021916908373ffffffffffffffffffffffffffffffffffffffff16021790555080600160006101000a81548173ffffffffffffffffffffffffffffffffffffffff021916908373ffffffffffffffffffffffffffffffffffffffff160217905550505062000171565b600080fd5b600073ffffffffffffffffffffffffffffffffffffffff82169050919050565b6000620000f282620000c5565b9050919050565b6200010481620000e5565b81146200011057600080fd5b50565b6000815190506200012481620000f9565b92915050565b60008060408385031215620001445762000143620000c0565b5b6000620001548582860162000113565b9250506020620001678582860162000113565b9150509250929050565b6112c280620001816000396000f3fe608060405234801561001057600080fd5b506004361061007d5760003560e01c80636d7591721161005b5780636d759172146100f15780636db646131461010f5780639420730c1461012b578063fc0c546a146101475761007d565b80631d4f2241146100825780631dab301e146100a05780633ed546ab146100d5575b600080fd5b61008a610165565b6040516100979190610875565b60405180910390f35b6100ba60048036038101906100b591906108da565b61018b565b6040516100cc969594939291906109c1565b60405180910390f35b6100ef60048036038101906100ea91906108da565b61027c565b005b6100f9610411565b6040516101069190610a29565b60405180910390f35b610129600480360381019061012491906108da565b610417565b005b61014560048036038101906101409190610b79565b610641565b005b61014f610810565b60405161015c9190610c47565b60405180910390f35b600160009054906101000a900473ffffffffffffffffffffffffffffffffffffffff1681565b60036020528060005260406000206000915090508060000160009054906101000a900473ffffffffffffffffffffffffffffffffffffffff16908060010180546101d490610c91565b80601f016020809104026020016040519081016040528092919081815260200182805461020090610c91565b801561024d5780601f106102225761010080835404028352916020019161024d565b820191906000526020600020905b81548152906001019060200180831161023057829003601f168201915b5050505050908060020154908060030154908060040154908060050160009054906101000a900460ff16905086565b6000600360008381526020019081526020016000209050806003015442116102d9576040517f08c379a00000000000000000000000000000000000000000000000000000000081526004016102d090610d0e565b60405180910390fd5b8060050160009054906101000a900460ff161561032b576040517f08c379a000000000000000000000000000000000000000000000000000000000815260040161032290610d7a565b60405180910390fd5b60018160050160006101000a81548160ff02191690831515021790555060008054906101000a900473ffffffffffffffffffffffffffffffffffffffff1673ffffffffffffffffffffffffffffffffffffffff1663a9059cbb600160009054906101000a900473ffffffffffffffffffffffffffffffffffffffff1683600401546040518363ffffffff1660e01b81526004016103c9929190610d9a565b6020604051808303816000875af11580156103e8573d6000803e3d6000fd5b505050506040513d601f19601f8201168201806040525081019061040c9190610def565b505050565b60025481565b60006003600083815260200190815260200160002090508060000160009054906101000a900473ffffffffffffffffffffffffffffffffffffffff1673ffffffffffffffffffffffffffffffffffffffff163373ffffffffffffffffffffffffffffffffffffffff16146104c0576040517f08c379a00000000000000000000000000000000000000000000000000000000081526004016104b790610e68565b60405180910390fd5b8060050160009054906101000a900460ff1615610512576040517f08c379a000000000000000000000000000000000000000000000000000000000815260040161050990610d7a565b60405180910390fd5b8060030154421115610559576040517f08c379a000000000000000000000000000000000000000000000000000000000815260040161055090610ed4565b60405180910390fd5b60018160050160006101000a81548160ff02191690831515021790555060008054906101000a900473ffffffffffffffffffffffffffffffffffffffff1673ffffffffffffffffffffffffffffffffffffffff1663a9059cbb8260000160009054906101000a900473ffffffffffffffffffffffffffffffffffffffff1683600401546040518363ffffffff1660e01b81526004016105f9929190610d9a565b6020604051808303816000875af1158015610618573d6000803e3d6000fd5b505050506040513d601f19601f8201168201806040525081019061063c9190610def565b505050565b60008054906101000a900473ffffffffffffffffffffffffffffffffffffffff1673ffffffffffffffffffffffffffffffffffffffff166323b872dd3330846040518463ffffffff1660e01b815260040161069e93929190610ef4565b6020604051808303816000875af11580156106bd573d6000803e3d6000fd5b505050506040513d601f19601f820116820180604052508101906106e19190610def565b506040518060c001604052803373ffffffffffffffffffffffffffffffffffffffff168152602001848152602001428152602001610e10846107239190610f5a565b4261072e9190610f9c565b81526020018281526020016000151581525060036000600254815260200190815260200160002060008201518160000160006101000a81548173ffffffffffffffffffffffffffffffffffffffff021916908373ffffffffffffffffffffffffffffffffffffffff16021790555060208201518160010190816107b19190611172565b5060408201518160020155606082015181600301556080820151816004015560a08201518160050160006101000a81548160ff0219169083151502179055509050506002600081548092919061080690611244565b9190505550505050565b60008054906101000a900473ffffffffffffffffffffffffffffffffffffffff1681565b600073ffffffffffffffffffffffffffffffffffffffff82169050919050565b600061085f82610834565b9050919050565b61086f81610854565b82525050565b600060208201905061088a6000830184610866565b92915050565b6000604051905090565b600080fd5b600080fd5b6000819050919050565b6108b7816108a4565b81146108c257600080fd5b50565b6000813590506108d4816108ae565b92915050565b6000602082840312156108f0576108ef61089a565b5b60006108fe848285016108c5565b91505092915050565b600081519050919050565b600082825260208201905092915050565b60005b83811015610941578082015181840152602081019050610926565b60008484015250505050565b6000601f19601f8301169050919050565b600061096982610907565b6109738185610912565b9350610983818560208601610923565b61098c8161094d565b840191505092915050565b6109a0816108a4565b82525050565b60008115159050919050565b6109bb816109a6565b82525050565b600060c0820190506109d66000830189610866565b81810360208301526109e8818861095e565b90506109f76040830187610997565b610a046060830186610997565b610a116080830185610997565b610a1e60a08301846109b2565b979650505050505050565b6000602082019050610a3e6000830184610997565b92915050565b600080fd5b600080fd5b7f4e487b7100000000000000000000000000000000000000000000000000000000600052604160045260246000fd5b610a868261094d565b810181811067ffffffffffffffff82111715610aa557610aa4610a4e565b5b80604052505050565b6000610ab8610890565b9050610ac48282610a7d565b919050565b600067ffffffffffffffff821115610ae457610ae3610a4e565b5b610aed8261094d565b9050602081019050919050565b82818337600083830152505050565b6000610b1c610b1784610ac9565b610aae565b905082815260208101848484011115610b3857610b37610a49565b5b610b43848285610afa565b509392505050565b600082601f830112610b6057610b5f610a44565b5b8135610b70848260208601610b09565b91505092915050565b600080600060608486031215610b9257610b9161089a565b5b600084013567ffffffffffffffff811115610bb057610baf61089f565b5b610bbc86828701610b4b565b9350506020610bcd868287016108c5565b9250506040610bde868287016108c5565b9150509250925092565b6000819050919050565b6000610c0d610c08610c0384610834565b610be8565b610834565b9050919050565b6000610c1f82610bf2565b9050919050565b6000610c3182610c14565b9050919050565b610c4181610c26565b82525050565b6000602082019050610c5c6000830184610c38565b92915050565b7f4e487b7100000000000000000000000000000000000000000000000000000000600052602260045260246000fd5b60006002820490506001821680610ca957607f821691505b602082108103610cbc57610cbb610c62565b5b50919050565b7f426f6f6b696e67207374696c6c20616374697665000000000000000000000000600082015250565b6000610cf8601483610912565b9150610d0382610cc2565b602082019050919050565b60006020820190508181036000830152610d2781610ceb565b9050919050565b7f416c72656164792072657475726e656400000000000000000000000000000000600082015250565b6000610d64601083610912565b9150610d6f82610d2e565b602082019050919050565b60006020820190508181036000830152610d9381610d57565b9050919050565b6000604082019050610daf6000830185610866565b610dbc6020830184610997565b9392505050565b610dcc816109a6565b8114610dd757600080fd5b50565b600081519050610de981610dc3565b92915050565b600060208284031215610e0557610e0461089a565b5b6000610e1384828501610dda565b91505092915050565b7f4e6f7420626f6f6b696e67206f776e6572000000000000000000000000000000600082015250565b6000610e52601183610912565b9150610e5d82610e1c565b602082019050919050565b60006020820190508181036000830152610e8181610e45565b9050919050565b7f546f6f206c617465000000000000000000000000000000000000000000000000600082015250565b6000610ebe600883610912565b9150610ec982610e88565b602082019050919050565b60006020820190508181036000830152610eed81610eb1565b9050919050565b6000606082019050610f096000830186610866565b610f166020830185610866565b610f236040830184610997565b949350505050565b7f4e487b7100000000000000000000000000000000000000000000000000000000600052601160045260246000fd5b6000610f65826108a4565b9150610f70836108a4565b9250828202610f7e816108a4565b91508282048414831517610f9557610f94610f2b565b5b5092915050565b6000610fa7826108a4565b9150610fb2836108a4565b9250828201905080821115610fca57610fc9610f2b565b5b92915050565b60008190508160005260206000209050919050565b60006020601f8301049050919050565b600082821b905092915050565b6000600883026110327fffffffffffffffffffffffffffffffffffffffffffffffffffffffffffffffff82610ff5565b61103c8683610ff5565b95508019841693508086168417925050509392505050565b600061106f61106a611065846108a4565b610be8565b6108a4565b9050919050565b6000819050919050565b61108983611054565b61109d61109582611076565b848454611002565b825550505050565b600090565b6110b26110a5565b6110bd818484611080565b505050565b5b818110156110e1576110d66000826110aa565b6001810190506110c3565b5050565b601f821115611126576110f781610fd0565b61110084610fe5565b8101602085101561110f578190505b61112361111b85610fe5565b8301826110c2565b50505b505050565b600082821c905092915050565b60006111496000198460080261112b565b1980831691505092915050565b60006111628383611138565b9150826002028217905092915050565b61117b82610907565b67ffffffffffffffff81111561119457611193610a4e565b5b61119e8254610c91565b6111a98282856110e5565b600060209050601f8311600181146111dc57600084156111ca578287015190505b6111d48582611156565b86555061123c565b601f1984166111ea86610fd0565b60005b82811015611212578489015182556001820191506020850194506020810190506111ed565b8683101561122f578489015161122b601f891682611138565b8355505b6001600288020188555050505b505050505050565b600061124f826108a4565b91507fffffffffffffffffffffffffffffffffffffffffffffffffffffffffffffffff820361128157611280610f2b565b5b60018201905091905056fea264697066735822122025ba45e526eb919381bda1c9c1a84b7c50c7f0bf712a12e11e206f5f3d3d41f364736f6c63430008140033",
  "linkReferences": {},
  "deployedLinkReferences": {}
}